:100000000C9465000C948D000C948D000C94A70A40
:100010000C94A70A0C94A70A0C948D000C9430132E
:100020000C948D000C948D000C948D000C94C607DC
:100030000C948D000C948D000C948D000C948D000C
:100040000C94380C0C948D000C94C10F0C94F30F8D
:100050000C948D000C948D000C948D000C948D00EC
:100060000C948D000C948D0000000008000201002B
:100070000003040700000000000000000102040863
:100080001020408001020408102001020408102002
:10009000040404040404040402020202020203032E
:1000A00003030303000000002300260029000000D2
:1000B0000000250028002B0000000000240027007D
:1000C0002A00020022022310330211241FBECFEFA8
:1000D000D8E0DEBFCDBF12E0A0E0B1E0EEE8FBE388
:1000E00002C005900D92A239B107D9F724E0A2E928
:1000F000B2E001C01D92AA34B207E1F710E0C8ECEB
:10010000D0E004C02297FE010E942018C43CD10711
:10011000C9F70E9467100C94BA1D0C940000CF928E
:10012000DF92EF92FF920F931F93E82FF92F05C0F4
:10013000015011092109310961F190819623941729
:10014000B9F305C0015011092109310911F190815C
:1001500096239413F7CFC12CD12CE12CF12C0AC09B
:100160008FEFC81AD80AE80AF80A0C151D052E05E3
:100170003F0579F080818623841791F36C2D7D2DC6
:100180008E2D9F2D1F910F91FF90EF90DF90CF90BC
:10019000089560E070E080E090E01F910F91FF9083
:1001A000EF90DF90CF900895EF92FF920F931F93FF
:1001B000CF93DF93CDB7DEB72C970FB6F894DEBFA1
:1001C0000FBECDBF8C01E62EF42E61E0842F0E947D
:1001D000B80D60E08E2D0E94B80D60E08F2D0E945A
:1001E000F10D82E090E00E94CD0C61E08F2D0E9425
:1001F000F10D8AE090E00E94CD0C60E08F2D0E940E
:10020000F10D20E432E44FE050E061E08E2D0E94D9
:10021000500E22E030E040E050E00E94E017CA01BA
:10022000B9010E9402172DEC3CEC48EE51E40E940B
:100230006C160E94D4164AE0CE0107960E94BC14A8
:100240006EE071E0CE0101960E944114BE01695F2B
:100250007F4FCE0101960E947315BC01C8010E9418
:100260006E14CE0101960E94D313CE0107960E9410
:10027000D313C8012C960FB6F894DEBF0FBECDBFC6
:10028000DF91CF911F910F91FF90EF900895EF9222
:10029000FF920F931F93CF93DF93CDB7DEB72C97C9
:1002A0000FB6F894DEBF0FBECDBF8C01E62EF42E44
:1002B00061E08E2D0E94B80D6E2D70E024EC39E0C7
:1002C0004AE352E08FEF92E00E949E086F2D70E0AB
:1002D0008FEF92E00E944F096FE070E080E090E0C5
:1002E0000E94A50C4AE06F2DCE0107960E948F1444
:1002F0006AE171E0CE0101960E944114BE01695F7E
:100300007F4FCE0101960E947315BC01C8010E9467
:100310006E14CE0101960E94D313CE0107960E945F
:10032000D313C8012C960FB6F894DEBF0FBECDBF15
:10033000DF91CF911F910F91FF90EF900895CF9291
:10034000DF92EF92FF920F931F93CF93DF93CDB77E
:10035000DEB72C970FB6F894DEBF0FBECDBF7C0181
:10036000862F6A01A9019801B6010E94EC104AE0AB
:10037000B601CE0107960E94BC1464E271E0CE0182
:1003800001960E944114BE01695F7F4FCE01019624
:100390000E947315BC01C7010E946E14CE01019624
:1003A0000E94D313CE0107960E94D313C7012C9647
:1003B0000FB6F894DEBF0FBECDBFDF91CF911F9176
:1003C0000F91FF90EF90DF90CF9008950F931F93C0
:1003D000CF93DF93CDB7DEB72D970FB6F894DEBF7E
:1003E0000FBECDBF8C01862F6D870E941B134AE084
:1003F0006D85CE0107960E948F1469E271E0CE01EF
:1004000001960E944114BE01695F7F4FCE010196A3
:100410000E947315BC01C8010E946E14CE010196A2
:100420000E94D313CE0107960E94D313C8012D96C4
:100430000FB6F894DEBF0FBECDBFDF91CF911F91F5
:100440000F91089520E044E062E082E093E00E9492
:100450007A0B8FEF92E00E94820862E872E082E9F4
:1004600092E00C94411482E992E00E94D31382E05E
:1004700093E00C94210B26E040E052EC61E070E048
:1004800084E993E00E945F0F40E855E260E070E08D
:1004900082E093E00E94AA0B84E993E00E94D80EC8
:1004A00060910A0170910B0184E993E00E94C210EF
:1004B00060E371E084E993E00C94DA108F929F92EC
:1004C000AF92BF92CF92DF92EF92FF920F931F9362
:1004D000CF93DF93CDB7DEB7C75CD1090FB6F894E1
:1004E000DEBF0FBECDBF62E872E0CE018F539F4FDB
:1004F0000E94411462E872E0CE0185549F4F0E9431
:10050000411462E872E0CE018B549F4F0E94411467
:1005100062E872E0CE0181559F4F0E94411462E86B
:1005200072E0CE0187559F4F0E9441146CE282E930
:1005300092E00E94F7157C01FF24209196023091F1
:1005400097022F5F3F4FA7014F5F5F4F62E972E055
:10055000CE018D559F4F0E941B16970140E050E041
:1005600062E972E0CE0101960E941B16BE016F5F28
:100570007F4F82E992E00E945714CE0101960E94BB
:10058000D31366E2CE018D559F4F0E94F7158F3F22
:1005900009F4A9C08C011127980140E050E0BE0188
:1005A0006D557F4FCE0101960E941B16BE016F5FF5
:1005B0007F4FCE0187559F4F0E945714CE01019661
:1005C0000E94D313C955DF4F28813981C75AD040C3
:1005D0002F5F3F4FA8014F5F5F4FBE016D557F4FAB
:1005E000CE0101960E941B16BE016F5F7F4FCE01A8
:1005F0008D559F4F0E945714CE0101960E94D31330
:100600006DE3CE0187559F4F0E94F7157C01FF24B3
:10061000970140E050E0BE0167557F4FCE01019643
:100620000E941B16BE016F5F7F4FCE018F539F4FFD
:100630000E945714CE0101960E94D313C355DF4F79
:1006400028813981CD5AD0402F5F3F4FA7014F5F9E
:100650005F4FBE0167557F4FCE0101960E941B166A
:10066000BE016F5F7F4FCE018B549F4F0E94571486
:10067000CE0101960E94D3136DE3CE018D559F4F9D
:100680000E94F7157C01FF24970140E050E0BE0175
:100690006D557F4FCE0101960E941B16BE016F5F04
:1006A0007F4FCE0185549F4F0E945714CE01019673
:1006B0000E94D313C955DF4F28813981C75AD040D2
:1006C0002F5F3F4FA7014F5F5F4FBE016D557F4FBB
:1006D000CE0101960E941B16BE016F5F7F4FCE01B7
:1006E00081559F4F36C06DE3CE018D559F4F0E94BF
:1006F000F7157C01FF24970140E050E0BE016D55E5
:100700007F4FCE0101960E941B16BE016F5F7F4F87
:10071000CE018F539F4F0E945714CE0101960E9425
:10072000D313C955DF4F28813981C75AD0402F5F75
:100730003F4FA7014F5F5F4FBE016D557F4FCE0109
:1007400001960E941B16BE016F5F7F4FCE018B5436
:100750009F4F0E945714CE0101960E94D3136FE35E
:1007600071E082E992E00E94BC158823D9F0CE01A5
:100770008B549F4F0E946016672B682B692B41F4A6
:10078000CE018F539F4F0E946016862F60E007C0F6
:10079000CE018F539F4F0E946016862F61E00E940A
:1007A000B80DEEC267E471E082E992E00E94BC15E8
:1007B000882309F4CEC06E0185E6C80ED11C10E076
:1007C0007601812F1E3018F40E94270E02C00E946D
:1007D000130DF601918380831F5FF2E0CF0ED11CD1
:1007E000163179F7F70183A58F9382A58F9381A5A1
:1007F0008F9380A58F9387A18F9386A18F9385A1D7
:100800008F9384A18F9383A18F9382A18F9381A1D2
:100810008F9380A18F93878D8F93868D8F93858DF6
:100820008F93848D8F93838D8F93828D8F93818D02
:100830008F93808D8F9387898F9386898F938589F6
:100840008F9384898F9383898F9382898F938189F2
:100850008F9380898F9387858F9386858F938585E6
:100860008F9384858F9383858F9382858F938185E2
:100870008F9380858F9387818F9386818F938581D6
:100880008F9384818F9383818F9382818F938181D2
:100890008F9380818F9380E591E09F938F938E015A
:1008A0000F5F1F4F1F930F930E94D91A0FB6F89432
:1008B000DEBF0FBECDBFB801CE018F569F4F0E9445
:1008C000411462E971E0CE0189569F4F0E944114A4
:1008D00062E972E0CE0189569F4F0E9473156EE95E
:1008E00071E00E948615BE016F567F4F0E947315FE
:1008F0006AEA71E00E948615BC01CE0183569F4FC3
:100900000E946E14CE0189569F4F0E94D313CE01D0
:100910008F569F4F0E94D3138091FE02882351F07F
:10092000BE0163567F4F82E093E00E94C810109290
:10093000FE020BC084E993E00E94D80EBE0163560C
:100940007F4F84E993E00E94C810CE0183569F4FE9
:1009500015C26DEA71E082E992E00E94BC1588231D
:1009600081F0CE018B549F4F0E946016162FCE014E
:100970008F539F4F0E946016862F612F0E94F10DAA
:10098000FFC16AEB71E082E992E00E94BC15882306
:1009900089F0CE018B549F4F0E9460166B017C0141
:1009A000CE018F539F4F0E946016862FB6010E9482
:1009B000300DE6C166EC71E082E992E00E94BC1560
:1009C000882331F1CE018F539F4F0E946016862FEE
:1009D0000E94270E182F62E971E0CE0101960E9455
:1009E000411462E972E0CE0101960E94731562ED36
:1009F00071E00E948615BE016F537F4F0E947315F0
:100A00006BED71E00E948615612F0E94A0152EC02B
:100A100065EE71E082E992E00E94BC15882309F43A
:100A200049C0CE018F539F4F0E946016862F0E94AF
:100A3000130D8C0162E971E0CE0101960E94411410
:100A400062E972E0CE0101960E94731562ED71E0D9
:100A50000E948615BE016F537F4F0E9473156BED88
:100A600071E00E948615B8010E94AE156BEA71E034
:100A70000E948615BC01CE018B599F4F0E946E14B7
:100A8000CE0101960E94D3138091FE02BE016B59E4
:100A90007F4F882339F082E093E00E94C8101092C3
:100AA000FE0204C084E993E00E94C810CE018B5975
:100AB0009F4F64C160EF71E082E992E00E94BC1533
:100AC000882309F443C062E971E0CE0101960E94D7
:100AD000411462E972E0CE0101960E94731562ED45
:100AE00071E00E948615BE0165547F4F0E94731508
:100AF0006BED71E00E948615BE0161557F4F0E942B
:100B000073156BEA71E00E948615BC01CE018B590A
:100B10009F4F0E946E14CE0101960E94D313BE0116
:100B20006B597F4F84E993E00E94C81067EF71E032
:100B3000CE0101960E944114BE016B547F4FCE013D
:100B400001960E94731564E072E04BC067E172E0A9
:100B500082E992E00E94BC15882309F462C062E930
:100B600071E0CE0101960E94411462E972E0CE016B
:100B700001960E9473156DE172E00E948615BE0118
:100B80006F537F4F0E94731565E272E00E948615D5
:100B9000BE0161557F4F0E9473156BEA71E00E94A0
:100BA0008615BC01CE018B599F4F0E946E14CE0159
:100BB00001960E94D313BE016B597F4F84E993E0E5
:100BC0000E94C81060E372E0CE0101960E944114B9
:100BD000BE016B547F4FCE0101960E94731563E2F4
:100BE00072E00E948615BE0165547F4F0E94731506
:100BF0006FE072E00E948615BE0161557F4F0E9432
:100C00007315BC01CE018B599F4F0E945714CE0122
:100C100001960E94D313BE016B597F4F82E093E08F
:100C200043CF67E372E082E992E00E94BC1588231B
:100C3000D1F0CE0181559F4F0E946016462FCE0104
:100C40008B549F4FC953DF4F4883C75CD0400E94ED
:100C50006016C953DF4F4881C75CD040CE01019672
:100C60000E94D40057C063E472E082E992E00E94DF
:100C7000BC158823D1F0CE0181559F4F0E9460168C
:100C8000462FCE018B549F4FC953DF4F4883C75C1B
:100C9000D0400E946016C953DF4F4881C75CD040E6
:100CA000CE0101960E94470135C069E472E082E9F5
:100CB00092E00E94BC158823D9F0CE0181559F4F48
:100CC0000E9460164B015C01CE0185549F4F0E942B
:100CD00060166B017C01CE018B549F4F0E94601601
:100CE00095018401A601CE0101960E949F0112C0C8
:100CF0006EE472E082E992E00E94BC15882309F458
:100D00003FC0CE018B549F4F0E946016CE010196CA
:100D10000E94E60162E971E0CE018B599F4F0E946B
:100D2000411462E972E0CE018B599F4F0E94731506
:100D300060E472E00E948615BE016F5F7F4F0E94E3
:100D400073156BEA71E00E948615BC01CE018F56C7
:100D50009F4F0E946E14CE018B599F4F0E94D31358
:100D6000CE0101960E94D313BE016F567F4F84E9D6
:100D700093E00E94C810CE018F569F4F0E94D3135C
:100D8000CE018D559F4F0E94D313CE0187559F4FA3
:100D90000E94D313CE0181559F4F0E94D313CE01E1
:100DA0008B549F4F0E94D313CE0185549F4F0E94B6
:100DB000D313CE018F539F4F0E94D313C953DF4FDC
:100DC0000FB6F894DEBF0FBECDBFDF91CF911F915C
:100DD0000F91FF90EF90DF90CF90BF90AF909F90DA
:100DE0008F900895CF93DF9300D000D000D0CDB77F
:100DF000DEB784E993E00E947C0E181619065CF5B4
:100E000084E993E00E94950EE091FD028A30D1F4CE
:100E1000F0E0E753FD4F10826AEC72E0CE010196DC
:100E20000E944114BE016F5F7F4F82E992E00E94F1
:100E30005714CE0101960E94D3131092FD020E9416
:100E40005E02D7CF91E09E0F9093FD02F0E0E65353
:100E5000FD4F8083CECF26960FB6F894DEBF0FBE2F
:100E6000CDBFDF91CF9108950F931F93CF93DF9361
:100E7000CDB7DEB762970FB6F894DEBF0FBECDBF19
:100E800001E082E093E00E94410A181619060CF076
:100E90006EC082E093E00E94B409E091FC028A30C7
:100EA00009F05CC0F0E0E956FD4F108268E972E09D
:100EB000CE0101960E944114BE016F5F7F4F82E90F
:100EC00092E00E945714CE0101960E94D31366EC63
:100ED00071E0CE010D960E944114BE01635F7F4F09
:100EE00082E992E00E941716892B59F165EE71E0B4
:100EF000CE0107960E944114BE01695F7F4F82E9CF
:100F000092E00E941716892BB1F067E471E0CE01E0
:100F100001960E944114BE016F5F7F4F82E992E00B
:100F20000E94171611E0892B09F010E0CE010196FE
:100F30000E94D31301C011E0CE0107960E94D31383
:100F400001C011E0CE010D960E94D3131111009340
:100F5000FE021092FC020E945E0293CF91E09E0F6F
:100F60009093FC02F0E0E856FD4F80838ACF6296B2
:100F70000FB6F894DEBF0FBECDBFDF91CF911F91AA
:100F80000F9108950E94F2060C9434071F920F925D
:100F90000FB60F9211242F933F934F935F936F934C
:100FA0007F938F939F93AF93BF93EF93FF93809122
:100FB000220387FF05C010928500109284001AC09A
:100FC00020912203332727FD30958091210390E063
:100FD000281739077CF480912203992787FD909583
:100FE000FC01EE0FFF1FE80FF91FED5DFC4F808144
:100FF00086FD15C0809122038F5F8093220320918C
:101000002203332727FD30958091210390E0281794
:101010003907BCF4809122038C305CF112C08091BE
:101020002203992787FD9095FC01EE0FFF1FE80F23
:10103000F91FED5DFC4F808160E08F730E94F10D20
:10104000D9CF8091840090918500049680349C498A
:1010500018F480E49CE905C080918400909185009B
:10106000049690938900809388008FEF80932203E9
:1010700038C0209184003091850080912203992707
:1010800087FD9095FC01EE0FFF1FE80FF91FED5D46
:10109000FC4F81819281820F931F909389008093EE
:1010A000880080912203992787FD9095FC01EE0F1F
:1010B000FF1FE80FF91FED5DFC4F808186FF11C017
:1010C00080912203992787FD9095FC01EE0FFF1F69
:1010D000E80FF91FED5DFC4F808161E08F730E9486
:1010E000F10DFF91EF91BF91AF919F918F917F9102
:1010F0006F915F914F913F912F910F900FBE0F9085
:101100001F901895209121032C30A0F431E0320F6C
:1011100030932103FC012083822F90E0FC01EE0F2D
:10112000FF1FE80FF91FED5DFC4F88EB9BE09283FA
:10113000818308952FEFFC0120830895DF92EF92C1
:10114000FF920F931F93CF93DF93EC01D62E7A017A
:10115000890188818C3008F066C061E08D2D0E9485
:10116000B80D8881A82FB0E0FD01EE0FFF1FEA0F38
:10117000FB1FED5DFC4F2D2D2F739081907C922BEA
:10118000908360E272E06E197F0977FF02C06D5FA5
:101190007F4F7595679575956795698340E659E02A
:1011A000401B510B57FF02C04D5F5F4F5595479550
:1011B000559547954A836CE00E949E179CE0899F55
:1011C000B001112420E030E0A901460F571FFA01B9
:1011D000EE0FFF1FE40FF51FED5DFC4F908196FDB4
:1011E00016C02F5F3F4F2C30310571F781110FC0B2
:1011F0001092800082E0809381001092850010920E
:101200008400B19A80916F00826080936F00888122
:1012100090E0FC01EE0FFF1FE80FF91FED5DFC4FA2
:101220008081806480838881DF91CF911F910F91AD
:10123000FF90EF90DF900895FC0180818C3070F575
:10124000918128E830E0291B310997FD3395220F61
:10125000331F220F331F621773077CF0928128E53A
:1012600032E0291B310997FD3395220F331F220FDE
:10127000331F621773070CF49B0122503109220FB0
:10128000331F4FB7F89490E0FC01EE0FFF1FE80FFB
:10129000F91FED5DFC4F328321834FBF08954F92BC
:1012A0005F926F927F92AF92BF92CF92DF92EF9256
:1012B000FF920F931F93CF93DF93EC01603282E094
:1012C00078070CF040C077FD06C0653B71052CF037
:1012D00064EB70E002C060E070E0898128E830E0F3
:1012E000281B310987FD3395220F331F220F331F2F
:1012F0005901CC24B7FCC094DC2C882777FD80955D
:10130000982F2A8148E552E0421B510927FD539549
:10131000440F551F440F551F2A01662457FC609443
:10132000762C7F926F925F924F9214EBE12EF12C0C
:1013300000E010E020E030E0A9010E948C130F9043
:101340000F900F900F90CE01DF91CF911F910F91D1
:10135000FF90EF90DF90CF90BF90AF907F906F9015
:101360005F904F900C941C092091890330918A035F
:1013700028173907B9F490914703809148039817CB
:1013800089F0E0914703F0E0E75BFC4F808120911A
:10139000470330E02F5F3F4F2F73332720934703DE
:1013A00090E008958FEF9FEF08951F93CF93DF9301
:1013B000DC015C968D919C915D97009749F481E0EA
:1013C00090E013969C938E93129780E090E03BC040
:1013D0005196ED91FC91529750962C915097322F47
:1013E00030951FB75E964C915E9741FB772770F959
:1013F00041FD6095F8944081772311F0422B01C0A4
:1014000043234083EC012197F1F748E0508160FFCE
:1014100002C0522B01C053235083EC012197F1F7F6
:101420006695415099F78081772311F0832301C09D
:10143000822B80831FBF5C968D919C915D97019755
:10144000F1F781E090E0DF91CF911F910895209115
:10145000890330918A032817390781F49091470353
:1014600080914803981751F0E0914703F0E0E75B63
:10147000FC4F8081992787FD909508958FEF9FEF0E
:1014800008952091890330918A032817390771F450
:10149000809148032091470390E0805C9F4F821B1E
:1014A000910960E470E00E94AA17089580E090E03E
:1014B00008952091890330918A032817390739F458
:1014C0008FB7F89410924803109247038FBF089586
:1014D000E0918903F0918A03E817F90769F4A38979
:1014E000B4899C918589809589238C9310928A0375
:1014F0001092890381E0089580E00895CF93DF93EF
:10150000EC018A8D9B8D892BF1F08091890390915C
:101510008A038C179D07B9F0009711F00E94680AA2
:101520008E8D8E7F8E8F1092480310924703D0933A
:101530008A03C0938903EB89FC8980819D89892B6B
:10154000808381E001C080E0DF91CF9108951F92F8
:101550000F920FB60F9211242F933F934F935F93E7
:101560006F937F938F939F93AF93BF93EF93FF936B
:10157000E0918903F0918A03309709F451C0868D78
:10158000A685B785958581FF04C08C91892329F4B0
:1015900047C08C91892309F043C0A389B4899C91E9
:1015A0008589809589238C93868997890197F1F79E
:1015B000208D318DA685B785758558E040E0C9013D
:1015C0000197F1F7842F90E095958795482F6C91BE
:1015D000672309F04068515091F7868D81FD409551
:1015E0008091480390E001968F73992720914703DB
:1015F000281749F0A0914803B0E0A75BBC4F4C937B
:101600008093480303C0868D8160868F828D938D81
:101610000197F1F7A389B4898C919589892B8C93D3
:10162000FF91EF91BF91AF919F918F917F916F91BA
:101630005F914F913F912F910F900FBE0F901F9090
:10164000189524E632E0FC01318320830C94680A6B
:101650001F93CF93DF93EC01162F6E8D669561700B
:1016600081E06827812F0E94F10D61E0812F0E94A7
:10167000B80D812F90E0FC01E458FF4FE491E88B16
:10168000FC01E057FF4FE491F0E0EE0FFF1FE25541
:10169000FF4F859194919A8B898BDF91CF911F9108
:1016A00008951F93CF93DF93EC01162F60E0812FF5
:1016B0000E94B80D8E8D81FD04C061E0812F0E94D3
:1016C000F10D1C87812F90E0FC01E458FF4FE4915D
:1016D000ED87FC01E057FF4FE491F0E0EE0FFF1FB4
:1016E000EC55FF4F859194919F878E87DF91CF9125
:1016F0001F910895FF920F931F93CF93DF93EC01F7
:10170000F62E522F1B821A8208EE13E020E030E002
:101710000C831D832E833F8384E692E09983888324
:101720001F8A1E8A198E188E1B8E1A8E1D8E1C8E75
:101730008E8D8E7F50FB81F98E8F642FCE010E949B
:10174000280B6F2DCE01DF91CF911F910F91FF904C
:101750000C94510BCF93DF93EC019A01AB011B8EDC
:101760001A8E198E188E1F8A1E8A60E079E08DE32A
:1017700090E00E94E017C9012430310520F0B90142
:101780006350710902C061E070E07D8F6C8FEC8561
:10179000E63108F068C0B901769567956431710546
:1017A00018F06351710902C061E070E07F8B6E8BAD
:1017B000069718F0C901059702C081E090E0998F63
:1017C000888FC901880F991F820F931F969587955F
:1017D000969587958D30910510F00C9702C081E0A9
:1017E00090E09B8F8A8F20916800E83050F091E064
:1017F000EE3008F490E081E001C0880F9A95EAF796
:1018000001C084E0822B809368002C85283038F05A
:101810002E3040F0263148F48CE690E008C08DE68A
:1018200090E005C08BE690E002C080E090E09C8BE9
:101830008B8B283030F481E001C0880F2A95EAF7BD
:101840000DC0822F90E02E3010F4089701C00E9743
:1018500091E001C0990F8A95EAF7892F8D8B8C8DC5
:101860009D8D0197F1F7CE01DF91CF910C947E0A07
:101870001F920F920FB60F9211242F933F938F93C5
:101880009F93AF93BF9380918C0390918D03A09110
:101890008E03B0918F0330918B0323E0230F2D37FC
:1018A00020F40196A11DB11D05C026E8230F029664
:1018B000A11DB11D20938B0380938C0390938D0306
:1018C000A0938E03B0938F03809190039091910326
:1018D000A0919203B09193030196A11DB11D809335
:1018E000900390939103A0939203B0939303BF91BD
:1018F000AF919F918F913F912F910F900FBE0F90BD
:101900001F9018953FB7F8948091900390919103A0
:10191000A0919203B091930326B5A89B05C02F3FD9
:1019200019F00196A11DB11D3FBF6627782F892FA1
:101930009A2F620F711D811D911D42E0660F771F66
:10194000881F991F4A95D1F70895CF92DF92EF92A1
:10195000FF92CF93DF936B017C010E94820CEB011D
:10196000C114D104E104F10489F00E946B160E94B5
:10197000820C6C1B7D0B683E734090F381E0C81AAB
:10198000D108E108F108C851DC4FEACFDF91CF91CF
:10199000FF90EF90DF90CF9008958230910538F05E
:1019A000880F991F880F991F05970197F1F70895E0
:1019B000789484B5826084BD84B5816084BD85B52A
:1019C000826085BD85B5816085BDEEE6F0E08081F1
:1019D00081608083E1E8F0E0108280818260808312
:1019E000808181608083E0E8F0E080818160808395
:1019F000E1EBF0E0808184608083E0EBF0E08081C7
:101A000081608083EAE7F0E0808184608083808168
:101A10008260808380818160808380818068808310
:101A20001092C10008958E3008F08E50877020917A
:101A30000C0190E4299F90011124822B80937C005B
:101A400080917A00806480937A0080917A0086FD8C
:101A5000FCCF809178002091790090E0922B08953E
:101A60001F93CF93DF93182FEB0161E00E94B80D15
:101A7000209711F460E004C0CF3FD10539F461E054
:101A8000812FDF91CF911F910C94F10DE12FF0E0A8
:101A9000E859FF4FE491E330F9F048F4E130B9F050
:101AA000E230A1F584B5806284BDC8BD34C0E730A2
:101AB000E9F0E83019F1E43049F580918000806266
:101AC00080938000D0938B00C0938A0024C084B59B
:101AD000806884BDC7BD1FC08091800080688093EE
:101AE0008000D0938900C093880015C08091B00019
:101AF00080688093B000C093B3000DC08091B000A7
:101B000080628093B000C093B40005C0C038D10596
:101B10000CF0B5CFAFCFDF91CF911F9108958330F7
:101B200081F028F4813099F08230A1F00895873057
:101B3000A9F08830B9F08430D1F4809180008F7D95
:101B400003C0809180008F7780938000089584B5D2
:101B50008F7702C084B58F7D84BD08958091B000D9
:101B60008F7703C08091B0008F7D8093B00008957F
:101B7000CF93DF9390E0FC01E458FF4F2491FC01E8
:101B8000E057FF4F8491882349F190E0880F991F17
:101B9000FC01E854FF4FA591B49182559F4FFC0181
:101BA000C591D4919FB7611108C0F8948C9120958C
:101BB00082238C93888182230AC0623051F4F89486
:101BC0008C91322F309583238C938881822B88834C
:101BD00004C0F8948C91822B8C939FBFDF91CF919E
:101BE00008950F931F93CF93DF931F92CDB7DEB766
:101BF000282F30E0F901E859FF4F8491F901E458AA
:101C0000FF4F1491F901E057FF4F04910023C9F0F1
:101C1000882321F069830E948F0D6981E02FF0E015
:101C2000EE0FFF1FE255FF4FA591B4919FB7F894B7
:101C30008C91611103C01095812301C0812B8C937D
:101C40009FBF0F90DF91CF911F910F910895CF9378
:101C5000DF93282F30E0F901E859FF4F8491F90113
:101C6000E458FF4FD491F901E057FF4FC491CC23C2
:101C700091F081110E948F0DEC2FF0E0EE0FFF1F0D
:101C8000EC55FF4FA591B4912C912D2381E090E06C
:101C900021F480E002C080E090E0DF91CF910895D0
:101CA0000F931F93762F90E0FC01E458FF4F64914F
:101CB000FC01E057FF4FE4917111762FF0E0EE0F39
:101CC000FF1FEC55FF4F8591949189019A013F7058
:101CD000472F0E948F00611571058105910531F034
:101CE0006F5F7F4F8F4F9F4F9F7003C060E070E02A
:101CF000CB011F910F910895FC01818D228D90E001
:101D0000805C9F4F821B91098F7399270895FC0176
:101D1000918D828D981731F0828DE80FF11D858DA0
:101D200090E008958FEF9FEF0895FC01918D828DD3
:101D3000981761F0828DDF01A80FB11D5D968C911F
:101D4000928D9F5F9F73928F90E008958FEF9FEF2A
:101D5000089589E190E1892B49F080E090E0892B9A
:101D600029F00E94191081110C9400000895FC01C3
:101D7000848DDF01A80FB11DA35ABF4F2C91848D14
:101D800090E001968F739927848FA689B7892C9349
:101D9000A089B1898C9180648C93938D848D9813E4
:101DA00006C00288F389E02D80818F7D80830895AD
:101DB000CF93DF93EC01888D8823C9F0EA89FB89F2
:101DC000808185FD05C0A889B9898C9186FD0FC0E9
:101DD0000FB607FCF5CF808185FFF2CFA889B989BE
:101DE0008C9185FFEDCFCE010E94B70EE7CFDF913A
:101DF000CF910895CF92DF92FF920F931F93CF93CD
:101E0000DF931F92CDB7DEB76C0181E0D601589603
:101E10008C9358975B969C915B975C968C915C97A2
:101E2000981307C05096ED91FC915197808185FDE4
:101E30002EC0F601038D10E00F5F1F4F0F731127A7
:101E4000F02EF601848DF81211C00FB607FCF9CF01
:101E5000D6015096ED91FC915197808185FFF1CF8D
:101E6000C60169830E94B70E6981EBCF838DE80FAD
:101E7000F11DE35AFF4F6083D6015B960C935B978D
:101E80005296ED91FC915397808180620CC0D601EF
:101E90005696ED91FC91579760835096ED91FC9189
:101EA000519780818064808381E090E00F90DF9182
:101EB000CF911F910F91FF90DF90CF900895BF9227
:101EC000CF92DF92EF92FF92CF93DF93EC016A0102
:101ED0007B01B22EE889F98982E08083411581EE89
:101EE000580761057105A1F060E079E08DE390E0AD
:101EF000A70196010E94BE172150310941095109DD
:101F00005695479537952795211580E1380798F024
:101F1000E889F989108260E874E88EE190E0A70111
:101F200096010E94BE172150310941095109569569
:101F3000479537952795EC85FD853083EE85FF85A0
:101F40002083188EEC89FD89B082EA89FB89808123
:101F500080618083EA89FB89808188608083EA8947
:101F6000FB89808180688083EA89FB8980818F7DFD
:101F70008083DF91CF91FF90EF90DF90CF90BF9063
:101F800008951F920F920FB60F9211242F938F93E3
:101F90009F93EF93FF93E091A403F091A5038081B9
:101FA000E091AA03F091AB0382FD12C09081809171
:101FB000AD038F5F8F732091AE03821751F0E091D4
:101FC000AD03F0E0EC56FC4F958F8093AD0301C05C
:101FD0008081FF91EF919F918F912F910F900FBE74
:101FE0000F901F9018951F920F920FB60F92112409
:101FF0002F933F934F935F936F937F938F939F9311
:10200000AF93BF93EF93FF9384E993E00E94B70EE1
:10201000FF91EF91BF91AF919F918F917F916F91C0
:102020005F914F913F912F910F900FBE0F901F9096
:10203000189584E993E00E947C0E21E0892B09F435
:1020400020E0822F0895109297031092960388EE55
:1020500093E0A0E0B0E08093980390939903A0935D
:102060009A03B0939B0384E792E090939503809347
:10207000940385EC90E09093A1038093A00384ECFB
:1020800090E09093A3038093A20380EC90E0909360
:10209000A5038093A40381EC90E09093A703809321
:1020A000A60382EC90E09093A9038093A80386ECAA
:1020B00090E09093AB038093AA031092AD0310922B
:1020C000AE031092AF031092B003089508950E94DA
:1020D000D80C0E9466100E943B02C9EADEE00E9412
:1020E000C2072097E1F30E94A90EF9CFCF92DF92A9
:1020F000EF92FF920F931F93CF93DF936C017A01BE
:10210000EB01E60EF71E00E010E0CE15DF0561F0F2
:102110006991D601ED91FC910190F081E02DC6010D
:102120000995080F191FF1CFC801DF91CF911F91B9
:102130000F91FF90EF90DF90CF900895611571059A
:1021400081F0DB010D900020E9F7AD01415051090C
:10215000461B570BDC01ED91FC910280F381E02DD1
:10216000099480E090E00895DC01ED91FC91DB01A1
:1021700014964D915C9115976D917C910280F3813D
:10218000E02D09940C949E1060E872E00C949E106F
:102190000F931F93CF93DF93EC010E94B4108C0137
:1021A000CE010E94C410800F911FDF91CF911F912B
:1021B0000F9108950F931F93CF93DF93EC010E942B
:1021C0009E108C01CE010E94C410800F911FDF91E0
:1021D000CF911F910F9108953F924F925F926F920E
:1021E0007F928F929F92AF92BF92CF92DF92EF92A7
:1021F000FF920F931F93CF93DF9300D000D0CDB702
:10220000DEB78B0129013A0190910D01981721F059
:102210009F3F09F0DAC104C0E2ECF0E0349081C0E5
:1022200080930D01E2ECF0E0E491EF3F09F4CDC1C1
:10223000E13031F1E23009F44BC0E11171C014BC5E
:1022400015BC94B5926094BD95B5916095BD282F4D
:1022500030E0F901E057FF4FE491F0E0EE0FFF1F8F
:10226000E255FF4F459154915093410440934004EF
:10227000F901E458FF4F249120933F04312C53C0BF
:10228000109280001092810090918100986090934C
:10229000810090918100916090938100282F30E01F
:1022A000F901E057FF4FE491F0E0EE0FFF1FE25518
:1022B000FF4F4591549150933A0440933904F901EA
:1022C000E458FF4F249120933804332433942BC0D7
:1022D0001092B0001092B1009091B0009260909373
:1022E000B0009091B10091609093B100282F30E040
:1022F000F901E057FF4FE491F0E0EE0FFF1FE255C8
:10230000FF4F459154915093330440933204F901A7
:10231000E458FF4F24912093310452E0352E03C03E
:102320003E2E37FC52C161E00E94B80D4801A12C3D
:10233000B12C832D8D7F09F0C7C060E072E18AE780
:1023400090E0A50194010E94E01729833A834B8312
:102350005C8369017A0181E0C81AD108E108F108BB
:102360009FEFC916D104E104F10409F008F49AC002
:1023700060E472E48FE090E0A50194010E94E01710
:1023800069017A01E1E0CE1AD108E108F108F2E032
:102390003F1219C08FEFC816D104E104F10409F00F
:1023A00008F48AC060E970ED83E090E0A501940133
:1023B0000E94E01769017A0191E0C91AD108E10889
:1023C000F10883E001C082E0EFEFCE16D104E10412
:1023D000F10409F008F467C068E478EE81E090E069
:1023E000A50194010E94E01769017A01F1E0CF1A7A
:1023F000D108E108F1083320E1F082E038121BC077
:102400009FEFC916D104E104F10409F008F4DBC020
:1024100064E274EF80E090E0A50194010E94E0176F
:1024200069017A01E1E0CE1AD108E108F10885E0FE
:1024300003C083E001C084E0FFEFCF16D104E104C4
:10244000F10489F180F162E17AE780E090E0A50192
:1024500094010E94E01769017A0181E0C81AD1084D
:10246000E108F108311002C084E001C086E09FEF6E
:10247000C916D104E104F104B1F0A8F0C980DA80F2
:10248000EB80FC809AE0F594E794D794C7949A95F2
:10249000D1F7E1E0CE1AD108E108F108332031F09C
:1024A00087E00BC081E0332011F007C085E095B5CF
:1024B000987F982B95BD38C082E09091B100987FAD
:1024C000982B9093B10030C060E072E18AE790E011
:1024D000A50194010E94E01769017A01F1E0CF1A89
:1024E000D108E108F108C114D10481E0E806F10443
:1024F00088F068E478EE81E090E0A50194010E9404
:10250000E01769017A0191E0C91AD108E108F108E0
:1025100093E001C091E0E1E03E1206C080918100AD
:10252000887F892B809381004114510461047104D8
:1025300071F0D801AA0FBB1FA30192010E94FF17DF
:1025400028EE33E040E050E00E94BE1703C02FEFBA
:102550003FEFA901F1E03F16A1F082E0381619F132
:10256000311033C0C7BC20934204309343044093DE
:1025700044045093450480916E00826080936E0005
:1025800024C0D0928900C092880020933B043093ED
:102590003C0440933D0450933E0480916F00826060
:1025A00080936F0012C0C092B30020933404309324
:1025B0003504409336045093370480917000826054
:1025C0008093700002C084E078CF0F900F900F903E
:1025D0000F90DF91CF911F910F91FF90EF90DF90BF
:1025E000CF90BF90AF909F908F907F906F905F90B3
:1025F0004F903F900895813039F018F0823051F0BB
:10260000089510926E00089580916F008D7F8093E1
:102610006F000895809170008D7F8093700081E03D
:102620008093B0008091B100887F84608093B10076
:102630001092B3000895CF93C82F80910D018C1391
:1026400007C0E2ECF0E084919FEF90930D0101C090
:102650008FEF0E94FB1260E08C2FCF910C94F10D54
:102660001F920F920FB60F9211242F933F934F9307
:102670005F936F937F938F939F93AF93BF93EF93EA
:10268000FF938091340490913504A0913604B09169
:102690003704892B8A2B8B2B51F190913104E091D7
:1026A0003204F0913304808189278083809134043F
:1026B00090913504A0913604B0913704181619068C
:1026C0001A061B06C4F48091340490913504A0913D
:1026D0003604B09137040197A109B10980933404FD
:1026E00090933504A0933604B093370404C08091CE
:1026F0000D010E941B13FF91EF91BF91AF919F912C
:102700008F917F916F915F914F913F912F910F909A
:102710000FBE0F901F9018954F925F926F927F920D
:10272000AF92BF92CF92DF92EF92FF920F931F93DF
:10273000CF93DF93CDB7DEB729013A01621B730B4C
:10274000840B950B29893A894B895C892A193B09A5
:102750004C095D09298B3A8B4B8B5C8B9B01AC013F
:1027600069897A898B899C890E948E17E418F508FB
:1027700006091709A80197010E94E0172A0D3B1DC1
:102780004C1D5D1DCA01B901DF91CF911F910F91C1
:10279000FF90EF90DF90CF90BF90AF907F906F90C1
:1027A0005F904F900895FC01808191810C94CB182B
:1027B000CF93DF93EC0188819981009711F00E94FB
:1027C000CB18198218821D821C821B821A82DF910B
:1027D000CF9108950F931F93CF93DF93EC018B015B
:1027E0006F5F7F4F888199810E945A19009731F05D
:1027F000998388831B830A8381E001C080E0DF9195
:10280000CF911F910F910895CF93DF93EC018881B1
:102810009981892B29F08A819B818617970760F41B
:10282000CE010E94EA13882341F08C819D81892B7F
:1028300019F4E881F981108281E0DF91CF91089548
:10284000EF92FF920F931F93CF93DF93EC017B01E5
:102850008A01BA010E940414811104C0CE010E94B1
:10286000D81307C01D830C83B701888199810E940A
:10287000681ACE01DF91CF911F910F91FF90EF90D9
:102880000895FC0111821082138212821582148233
:102890006115710559F0FB0101900020E9F7AF01C6
:1028A00041505109461B570B0C9420140895CF93A7
:1028B000DF93EC01FB018617970761F0608171815E
:1028C0006115710529F0448155810E94201402C0D0
:1028D0000E94D813CE01DF91CF910895FC0111829F
:1028E000108213821282158214820C945714CF9393
:1028F000DF93EC016115710561F0FB01019000208F
:10290000E9F7AF0141505109461B570B0E942014B3
:1029100002C00E94D813CE01DF91CF9108950F938A
:102920001F93CF93DF93CDB7DEB729970FB6F894F7
:10293000DEBF0FBECDBF8C01862FF8011182108241
:10294000138212821582148250E0BE016F5F7F4FA6
:1029500090E00E94B41ABE016F5F7F4FC8010E94D1
:10296000771429960FB6F894DEBF0FBECDBFDF9166
:10297000CF911F910F9108950F931F93CF93DF93E2
:10298000CDB7DEB761970FB6F894DEBF0FBECDBFEF
:102990008C01CB01F8011182108213821282158200
:1029A000148250E0BE016F5F7F4F0E94B41ABE01D7
:1029B0006F5F7F4FC8010E94771461960FB6F8943D
:1029C000DEBF0FBECDBFDF91CF911F910F91089554
:1029D000EF92FF920F931F93CF93DF93EC017B0154
:1029E0000C811D816115710511F480E016C041153F
:1029F000510591F0040F151FB8010E94041488239B
:102A0000A1F3288139818C819D81B701820F931FA9
:102A10000E94681A1D830C8381E0DF91CF911F9182
:102A20000F91FF90EF900895EF92FF920F931F93F5
:102A3000CF93DF9300D000D0CDB7DEB77C01862FD7
:102A40004AE050E08E010F5F1F4FB80190E00E94F6
:102A5000891AF80101900020E9F7AF0141505109AE
:102A6000401B510BB801C7010E94E8140F900F9052
:102A70000F900F90DF91CF911F910F91FF90EF90EA
:102A80000895EF92FF920F931F93CF93DF93CDB7EB
:102A9000DEB727970FB6F894DEBF0FBECDBF7C011F
:102AA000CB014AE050E08E010F5F1F4FB8010E943A
:102AB000B41AF80101900020E9F7AF014150510923
:102AC000401B510BB801C7010E94E81427960FB6AE
:102AD000F894DEBF0FBECDBFDF91CF911F910F9154
:102AE000FF90EF900895CF93DF93EC01FB014481B9
:102AF0005581608171810E94E814811103C0CE016B
:102B00000E94D813CE01DF91CF910895CF93DF9328
:102B1000EC016115710569F0FB0101900020E9F7F6
:102B2000AF0141505109461B570B0E94E814811117
:102B300003C0CE010E94D813CE01DF91CF9108953A
:102B4000CF93DF93EC010E941415811103C0CE01D5
:102B50000E94D813CE01DF91CF910895CF93DF93D8
:102B6000EC010E944115811103C0CE010E94D813CF
:102B7000CE01DF91CF910895FC0124813581232B73
:102B800031F421E061157105A1F0FB0108C0FC01E1
:102B9000808191816115710531F421E0FC01808112
:102BA000882339F005C00E945F1A21E0892B09F0C3
:102BB00020E0822F0895CF93DF93FC0184819581DB
:102BC0004817590778F4C081D181772767FD709540
:102BD000CE01840F951F0E94541A009719F08C1B88
:102BE0009D0B02C08FEF9FEFDF91CF91089540E0E2
:102BF00050E00C94DB15CF93DF93FC018481958129
:102C00004817590778F4C081D181FB016081718137
:102C1000CE01840F951F0E946F1A009719F08C1B2C
:102C20009D0B02C08FEF9FEFDF91CF91089540E0A1
:102C300050E00C94FB15BF92CF92DF92EF92FF927F
:102C40000F931F93CF93DF936C017B01EA018901FE
:102C50002417350720F48D2FE901042F182F62E87F
:102C600072E0C6010E944114D70114968D919C9187
:102C70001597C817D907C8F48017910708F48C0175
:102C8000D701ED91FC911197E00FF11FB0801082F8
:102C90006D917C916C0F7D1FC6010E947714D70146
:102CA000ED91FC91E00FF11FB082C601DF91CF9151
:102CB0001F910F91FF90EF90DF90CF90BF900895FC
:102CC000FC0180819181009711F00C94241A60E03E
:102CD00070E0CB01089508950CD0E6C0DED040F03E
:102CE000D5D030F021F45F3F19F0C7C0511110C1A9
:102CF000CAC0EBD098F39923C9F35523B1F3951BC0
:102D0000550BBB27AA2762177307840738F09F5F0C
:102D10005F4F220F331F441FAA1FA9F333D00E2E7B
:102D20003AF0E0E830D091505040E695001CCAF7E8
:102D300029D0FE2F27D0660F771F881FBB1F2617AD
:102D400037074807AB07B0E809F0BB0B802DBF0180
:102D5000FF2793585F4F2AF09E3F510568F08DC0C2
:102D6000D7C05F3FECF3983EDCF386957795679587
:102D7000B795F7959F5FC9F7880F911D9695879531
:102D800097F90895E1E0660F771F881FBB1F621750
:102D900073078407BA0720F0621B730B840BBA0B0E
:102DA000EE1F88F7E095089598D088F09F5790F02F
:102DB000B92F9927B751A0F0D1F0660F771F881F60
:102DC000991F1AF0BA95C9F712C0B13081F09FD09F
:102DD000B1E008959CC0672F782F8827B85F39F03D
:102DE000B93FCCF3869577956795B395D9F73EF4BF
:102DF00090958095709561957F4F8F4F9F4F089567
:102E0000E89409C097FB3EF4909580957095619584
:102E10007F4F8F4F9F4F9923A9F0F92F96E9BB273A
:102E20009395F695879577956795B795F111F8CFB6
:102E3000FAF4BB0F11F460FF1BC06F5F7F4F8F4F21
:102E40009F4F16C0882311F096E911C0772321F017
:102E50009EE8872F762F05C0662371F096E8862FAF
:102E600070E060E02AF09A95660F771F881FDAF706
:102E7000880F9695879597F9089597F99F6780E849
:102E800070E060E008959FEF80EC089500240A94BC
:102E90001616170618060906089500240A94121635
:102EA0001306140605060895092E0394000C11F468
:102EB000882352F0BB0F40F4BF2B11F460FF04C015
:102EC0006F5F7F4F8F4F9F4F089557FD9058440F6E
:102ED000551F59F05F3F71F04795880F97FB991F79
:102EE00061F09F3F79F08795089512161306140636
:102EF000551FF2CF4695F1DF08C0161617061806C3
:102F0000991FF1CF86957105610508940895E8949D
:102F1000BB2766277727CB0197F90895DB018F93AD
:102F20009F930E94FF17BF91AF91A29F800D911DAB
:102F3000A39F900DB29F900D11240895991B79E0E5
:102F400004C0991F961708F0961B881F7A95C9F739
:102F50008095089597FB072E16F4009407D077FD0F
:102F600009D00E940A1807FC05D03EF4909581957F
:102F70009F4F0895709561957F4F0895A1E21A2E95
:102F8000AA1BBB1BFD010DC0AA1FBB1FEE1FFF1F0D
:102F9000A217B307E407F50720F0A21BB30BE40B5D
:102FA000F50B661F771F881F991F1A9469F76095A4
:102FB0007095809590959B01AC01BD01CF0108955E
:102FC000052E97FB1EF400940E94F71757FD07D0BB
:102FD0000E94BE1707FC03D04EF40C94F7175095CF
:102FE0004095309521953F4F4F4F5F4F08959095F5
:102FF0008095709561957F4F8F4F9F4F08950E94E8
:103000002418A59F900DB49F900DA49F800D911D35
:1030100011240895AA1BBB1B51E107C0AA1FBB1FA7
:10302000A617B70710F0A61BB70B881F991F5A9554
:10303000A9F780959095BC01CD010895EE0FFF1F73
:103040000590F491E02D0994A29FB001B39FC001B7
:10305000A39F700D811D1124911DB29F700D811DC4
:103060001124911D0895CF93DF938230910510F4C0
:1030700082E090E0E0914804F091490420E030E0E3
:10308000A0E0B0E0309739F14081518148175907ED
:10309000B8F04817590771F482819381109729F08D
:1030A00013969C938E9312972CC09093490480930F
:1030B000480427C02115310531F04217530718F095
:1030C000A901DB0101C0EF019A01BD01DF0102800E
:1030D000F381E02DD7CF21153105F9F0281B390BED
:1030E0002430310580F48A819B816115710521F0BE
:1030F000FB019383828304C0909349048093480426
:10310000FE01329644C0FE01E20FF31F81939193BA
:1031100022503109398328833AC0209146043091E6
:103120004704232B41F42091020130910301309395
:10313000470420934604209100013091010121159C
:10314000310541F42DB73EB740910401509105017E
:10315000241B350BE0914604F0914704E217F30776
:10316000A0F42E1B3F0B2817390778F0AC014E5FF7
:103170005F4F2417350748F04E0F5F1F50934704E9
:10318000409346048193919302C0E0E0F0E0CF01C8
:10319000DF91CF910895CF93DF93009709F487C013
:1031A000FC01329713821282C0914804D0914904E5
:1031B000209781F420813181280F391F80914604A6
:1031C000909147048217930779F5F0934704E093B1
:1031D00046046DC0DE0120E030E0AE17BF0750F4BA
:1031E00012964D915C9113979D014115510509F17E
:1031F000DA01F3CFB383A28340815181840F951FFD
:103200008A179B0771F48D919C911197840F951FDC
:1032100002969183808312968D919C91139793834C
:1032200082832115310529F4F0934904E093480481
:103230003EC0D9011396FC93EE9312974D915D9188
:10324000A40FB51FEA17FB0779F480819181840FE1
:10325000951F0296D90111969C938E93828193813A
:1032600013969C938E931297E0E0F0E08A819B8105
:10327000009719F0FE01EC01F9CFCE0102962881EA
:103280003981820F931F20914604309147042817FB
:10329000390769F4309729F41092490410924804D0
:1032A00002C013821282D0934704C0934604DF9178
:1032B000CF910895A0E0B0E0E0E6F9E10C94871D1D
:1032C000EC01CB01209719F40E943318B8C0FE011D
:1032D000E60FF71F9E0122503109E217F30708F4A9
:1032E000ACC0D9010D911C91119706171707B8F0C2
:1032F0000530110508F49FC0A80144505109461734
:10330000570708F498C002501109061B170B0193C8
:1033100011936D937C93CF010E94CB188CC05B01FD
:10332000A01AB10A4E01800E911EA0914804B091DE
:103330004904612C712C60E070E0109709F449C0D9
:10334000A815B905C9F5ED90FC901197670142E009
:10335000C40ED11CCA14DB0478F147018A189B08FB
:10336000640142E0C40ED11C1296BC9012971396D1
:10337000AC91B5E0CB16D10440F0B282A383918228
:103380008082D9018D939C9309C00E5F1F4F0E0D53
:103390001F1DF90111830083EB2DFA2F61157105B3
:1033A00031F0DB011396FC93EE93129744C0F09337
:1033B0004904E09348043FC06D917C9111976616D3
:1033C000770608F43B01BD0112960D90BC91A02D2B
:1033D000B4CF609146047091470468157905E9F40B
:1033E00068167906D0F44091000150910101411511
:1033F000510541F44DB75EB760910401709105012C
:10340000461B570BE417F507C0F4F0934704E0930D
:103410004604F901918380830EC00E9433187C0119
:10342000009759F0A801BE010E944B1ACE010E94DC
:10343000CB18C70104C0CE0102C080E090E0CDB738
:10344000DEB7EEE00C94A31D1F93FC01992788279B
:10345000BC01E89411911032E9F3193010F01E30DC
:10346000C8F31B3251F01D3249F4689406C00E9423
:103470009F1A610F711D811D911D119110531A30FA
:10348000B0F33EF490958095709561957F4F8F4F86
:103490009F4F1F910895FB01DC0102C001900D9226
:1034A00041505040D8F70895FC018191861721F0D2
:1034B0008823D9F7992708953197CF010895FB0103
:1034C000DC018D91019080190110D9F3990B0895B9
:1034D000FB01DC0101900D920020E1F70895FB0152
:1034E00051915523A9F0BF01DC014D9145174111C0
:1034F000E1F759F4CD010190002049F04D914015BC
:103500004111C9F3FB014111EFCF81E090E0019738
:1035100008954532510520F4423010F00C94941A6D
:10352000FB011082CB010895BB274A3031F4992367
:1035300022F4BDE2909581959F4F0C94C01A592FAB
:10354000482F372F262F660F771F881F991F660F6A
:10355000771F881F991F620F731F841F951F660FA7
:10356000771F881F991F08954532510520F4423076
:1035700010F00C94BF1AFB011082CB010895BB27F9
:10358000FB015527AA27880F991FAA1FA41710F01F
:10359000A41B83955051B9F7A05DAA3308F0A95D2B
:1035A000A193009779F7B111B1931192CB010C94CB
:1035B000E31CAEE0B0E0EFEDFAE10C94911D0D8953
:1035C0001E8986E08C831A8309838FEF9FE79E8391
:1035D0008D83AE01475E5F4F6F89788DCE01019676
:1035E0000E94FB1AEF81F885E00FF11F10822E96E2
:1035F000E4E00C94AD1DACE0B0E0E1E0FBE10C9444
:10360000831D7C016B018A01FC0117821682838174
:1036100081FFBDC1CE0101964C01F7019381F601F6
:1036200093FD859193FF81916F01882309F4ABC1CC
:10363000853239F493FD859193FF81916F01853235
:1036400029F4B70190E00E94F31CE7CF512C312CF4
:1036500020E02032A0F48B3269F030F4803259F04F
:10366000833269F420612CC08D3239F0803339F413
:10367000216026C02260246023C0286021C027FD6D
:1036800027C030ED380F3A3078F426FF06C0FAE054
:103690005F9E300D1124532E13C08AE0389E300DEA
:1036A0001124332E20620CC08E3221F426FD6BC112
:1036B000206406C08C3611F4206802C0883641F4BC
:1036C000F60193FD859193FF81916F018111C1CF27
:1036D000982F9F7D9554933028F40C5F1F4FFFE384
:1036E000F9830DC0833631F0833771F0833509F0EB
:1036F0005BC022C0F801808189830E5F1F4F442484
:103700004394512C540115C03801F2E06F0E711C26
:10371000F801A080B18026FF03C0652D70E002C0D3
:103720006FEF7FEFC5012C870E94D81C2C0183010D
:103730002C852F77222E17C03801F2E06F0E711CF6
:10374000F801A080B18026FF03C0652D70E002C0A3
:103750006FEF7FEFC5012C870E94CD1C2C012C85BB
:103760002068222E830123FC1BC0832D90E0481685
:103770005906B0F4B70180E290E00E94F31C3A943D
:10378000F4CFF50127FC859127FE81915F01B701F8
:1037900090E00E94F31C31103A94F1E04F1A510866
:1037A0004114510471F7E5C0843611F0893639F5BA
:1037B000F80127FF07C060817181828193810C5FCE
:1037C0001F4F08C060817181882777FD8095982FF1
:1037D0000E5F1F4F2F76B22E97FF09C090958095F0
:1037E000709561957F4F8F4F9F4F2068B22E2AE0D2
:1037F00030E0A4010E94251DA82EA81844C08537DA
:1038000029F42F7EB22E2AE030E025C0F22FF97F76
:10381000BF2E8F36C1F018F4883579F0B4C08037E8
:1038200019F0883721F0AFC02F2F2061B22EB4FEDF
:103830000DC08B2D8460B82E09C024FF0AC09F2FB5
:103840009660B92E06C028E030E005C020E130E0E7
:1038500002C020E132E0F801B7FE07C0608171814B
:10386000828193810C5F1F4F06C06081718180E06F
:1038700090E00E5F1F4FA4010E94251DA82EA818DE
:10388000FB2DFF77BF2EB6FE0BC02B2D2E7FA51470
:1038900050F4B4FE0AC0B2FC08C02B2D2E7E05C029
:1038A0007A2C2B2D03C07A2C01C0752C24FF0DC05F
:1038B000FE01EA0DF11D8081803311F4297E09C0DB
:1038C00022FF06C07394739404C0822F867809F097
:1038D000739423FD13C020FF06C05A2C731418F4F0
:1038E000530C5718732C731468F4B70180E290E0FE
:1038F0002C870E94F31C73942C85F5CF731410F45D
:10390000371801C0312C24FF12C0B70180E390E0CA
:103910002C870E94F31C2C8522FF17C021FF03C0B7
:1039200088E590E002C088E790E0B7010CC0822FE4
:10393000867859F021FD02C080E201C08BE227FDAC
:103940008DE2B70190E00E94F31CA51438F4B70192
:1039500080E390E00E94F31C5A94F7CFAA94F401FC
:10396000EA0DF11D8081B70190E00E94F31CA110C7
:10397000F5CF332009F451CEB70180E290E00E94E8
:10398000F31C3A94F6CFF7018681978102C08FEF3E
:103990009FEF2C96E2E10C949F1DFC010590615075
:1039A00070400110D8F7809590958E0F9F1F089555
:1039B000FC016150704001900110D8F780959095FE
:1039C0008E0F9F1F0895DC01FC01672F71917723F3
:1039D000E1F7329704C07C916D9370836291AE17CA
:1039E000BF07C8F308950F931F93CF93DF93182F4A
:1039F000092FEB018B8181FD03C08FEF9FEF20C06A
:103A000082FF10C04E815F812C813D814217530798
:103A10007CF4E881F9819F012F5F3F4F3983288330
:103A2000108306C0E885F985812F0995892B29F730
:103A30002E813F812F5F3F4F3F832E83812F902F19
:103A4000DF91CF911F910F910895FA01AA27283095
:103A500051F1203181F1E8946F936E7F6E5F7F4F5B
:103A60008F4F9F4FAF4FB1E03ED0B4E03CD0670FD7
:103A7000781F891F9A1FA11D680F791F8A1F911D2A
:103A8000A11D6A0F711D811D911DA11D20D009F47A
:103A900068943F912AE0269F11243019305D3193BC
:103AA000DEF6CF010895462F4770405D4193B3E0A5
:103AB0000FD0C9F7F6CF462F4F70405D4A3318F04C
:103AC000495D31FD4052419302D0A9F7EACFB4E0FD
:103AD000A6959795879577956795BA95C9F70097B5
:103AE0006105710508959B01AC010A2E0694579556
:103AF000479537952795BA95C9F7620F731F841FAD
:103B0000951FA01D08952F923F924F925F926F9242
:103B10007F928F929F92AF92BF92CF92DF92EF925D
:103B2000FF920F931F93CF93DF93CDB7DEB7CA1BDE
:103B3000DB0B0FB6F894DEBF0FBECDBF09942A8809
:103B4000398848885F846E847D848C849B84AA84B1
:103B5000B984C884DF80EE80FD800C811B81AA813E
:103B6000B981CE0FD11D0FB6F894DEBF0FBECDBF09
:103B7000ED01089510E0C8ECD0E004C0FE010E9401
:0E3B800020182296CA3CD107C9F7F894FFCF4F
:103B8E0000004A04800001000000550201FF22647B
:103B9E00697374616E6365223A00226465677265AB
:103BAE0065223A002266223A002270696E223A009D
:103BBE002E57466475696E6F2E526561647900707A
:103BCE00696E4D6F646500726561644750494F00C0
:103BDE0025642C25642C25642C25642C25642C2529
:103BEE00642C25642C25642C25642C25642C2564DA
:103BFE002C25642C25642C25642C25642C25642C02
:103C0E0025642C25642C25642C25642C25642C25F8
:103C1E0064007B22416374696F6E223A2200222C6B
:103C2E002256616C7565223A2200227D0064696716
:103C3E006974616C577269746500616E616C6F674F
:103C4E005772697465006469676974616C52656165
:103C5E006400222C2250696E223A002C2256616C8E
:103C6E007565223A00616E616C6F67526561640022
:103C7E0077746770696F0057544750494F2B5459EA
:103C8E0050453A002C52573A572C50494E3A002C78
:103C9E0056414C55453A00777473656E00222C22BE
:103CAE004154223A002C22446567726565223A001F
:103CBE00575453454E2B0064697374616E636500EF
:103CCE00222C00736572766F00746F6E65006E6FD6
:103CDE00546F6E6500323031362E30342E3236004F
:103CEE0000000000D5097610410AB409270A590AC6
:103CFE0000000000FA0E76107C0E950E870ED80E80
:103D0E000D0A006E616E00696E66006F7666002E9B
:023D1E000000A3
:00000001FF
